:100000000C9462000C9488050C9461050C948A0091
:100010000C948A000C948A000C948A000C948A0038
:100020000C948A000C948A000C948A000C948A0028
:100030000C948A000C948A000C948A000C948A0018
:100040000C9417050C948A000C94E5040C94BF04DE
:100050000C948A000C948A000C948A000C948A00F8
:100060000C94AF050C948A000000000023002600C9
:10007000290000000008000201000003040700003E
:1000800000000000000000000000250028002B00F8
:1000900000000000240027002A00040404040404D3
:1000A0000404020202020202030303030303010227
:1000B00004081020408001020408102001020408F6
:1000C0001020CA0611241FBECFEFD8E0DEBFCDBF7F
:1000D00022E0A6E4B1E001C01D92AB3BB207E1F71C
:1000E00011E0A0E0B1E0E6E4F3E102C005900D927A
:1000F000A634B107D9F710E0C2E6D0E004C02197DA
:10010000FE010E949B09C136D107C9F70E94190759
:100110000C94A1090C940000E8ECF1E0A089B189ED
:1001200082E08C93A485B5851C92A685B78580E175
:100130008C93108EA489B58986E08C93A289B389AB
:100140008C9180618C93A289B3898C9188608C9307
:10015000A289B3898C9180688C930288F389E02D01
:1001600080818F7D808308958230C8F4E82FF0E08D
:10017000EE0FFF1FE050FF4F71836083813041F02D
:10018000809169008C7F816080936900E89A08956E
:1001900080916900837F846080936900E99A089563
:1001A000CF93DF9390E0FC01E255FF4F24918656F8
:1001B0009F4FFC0184918823C1F090E0880F991F24
:1001C000FC01E057FF4FC591D491FC01EA57FF4F66
:1001D000A591B4919FB7F8943881822F809583239D
:1001E0008883EC91E22BEC939FBFDF91CF91089530
:1001F000AF92BF92CF92DF92EF92FF920F931F9335
:10020000CF93DF936C017B018B01040F151FEB0172
:100210005E01AE18BF08C017D10759F06991D60129
:10022000ED91FC910190F081E02DC6010995892B9B
:1002300079F7C501DF91CF911F910F91FF90EF905A
:10024000DF90CF90BF90AF9008950895FC01538D3B
:10025000448D252F30E0842F90E0821B930B5417A0
:1002600010F0CF96089501970895FC01918D828D2D
:10027000981761F0A28DAE0FBF2FB11D5D968C91C6
:10028000928D9F5F9F73928F90E008958FEF9FEF05
:100290000895FC01918D828D981731F0828DE80FC1
:1002A000F11D858D90E008958FEF9FEF0895FC017B
:1002B000918D228D892F90E0805C9F4F821B910948
:1002C0008F739927089588EC91E00E94570121E0EF
:1002D000892B09F420E0822F089580E090E0892B9B
:1002E00029F00E94630181110C9400000895FC0123
:1002F000A48DA80FB92FB11DA35ABF4F2C91848D87
:1003000090E001968F739927848FA689B7892C93E3
:10031000A089B1898C91837080648C93938D848D36
:10032000981306C00288F389E02D80818F7D808339
:100330000895EF92FF920F931F93CF93DF93EC01F9
:1003400081E0888F9B8D8C8D98131AC0E889F9897C
:10035000808185FF15C09FB7F894EE89FF8960837F
:10036000E889F98980818370806480839FBF81E000
:1003700090E0DF91CF911F910F91FF90EF90089542
:10038000F62E0B8D10E00F5F1F4F0F731127E02E1D
:100390008C8D8E110CC00FB607FCFACFE889F98955
:1003A000808185FFF5CFCE010E947701F1CFEB8DE3
:1003B000EC0FFD2FF11DE35AFF4FF0829FB7F89429
:1003C0000B8FEA89FB8980818062CFCFCF93DF9347
:1003D000EC01888D8823B9F0AA89BB89E889F9895D
:1003E0008C9185FD03C0808186FD0DC00FB607FC92
:1003F000F7CF8C9185FFF2CF808185FFEDCFCE01C5
:100400000E947701E9CFDF91CF910895833081F089
:1004100028F4813099F08230A9F008958730A9F04E
:100420008830C9F08430B1F4809180008F7D03C0A2
:10043000809180008F7780938000089584B58F77B6
:1004400084BD089584B58F7DFBCF8091B0008F77F8
:100450008093B00008958091B0008F7DF9CFCF9345
:10046000DF93282F30E0F901EE58FF4F8491F90116
:10047000E255FF4FD491F901E656FF4FC491CC23CA
:10048000A1F081110E940602EC2FF0E0EE0FFF1F99
:10049000E859FF4FA591B491EC91ED2381E090E0F4
:1004A00009F480E0DF91CF91089580E090E0FACFE9
:1004B0001F93CF93DF93282F30E0F901EE58FF4FC1
:1004C0008491F901E255FF4FD491F901E656FF4FAF
:1004D000C491CC23A9F0162F81110E940602EC2FA3
:1004E000F0E0EE0FFF1FEA57FF4FA591B4918FB7D1
:1004F000F894EC91111108C0D095DE23DC938FBFE6
:10050000DF91CF911F910895DE2BF8CF3FB7F8947C
:100510008091BC019091BD01A091BE01B091BF013D
:1005200026B5A89B05C02F3F19F00196A11DB11D4E
:100530003FBFBA2FA92F982F8827BC01CD01620F8A
:10054000711D811D911D42E0660F771F881F991F45
:100550004A95D1F708958F929F92AF92BF92CF9212
:10056000DF92EF92FF924B015C010E9486026B01C9
:100570007C010E9486026C197D098E099F09683EE4
:10058000734081059105A8F321E0821A9108A10822
:10059000B10888EEC80E83E0D81EE11CF11C81145E
:1005A0009104A104B10429F7FF90EF90DF90CF9060
:1005B000BF90AF909F908F9008952FB7F89460915F
:1005C000B8017091B9018091BA019091BB012FBF20
:1005D0000895089520916D01260F3327331F21328E
:1005E0003105ECF420919101FC0190E080E0243091
:1005F00069F082E00895A0916D012191AC01435B07
:100600005E4FA40FB52FB11D2C930196861798F35A
:1006100080916D01680F60936D0180E0089581E025
:1006200008958FEF9FEF08958FEF9FEF08958091CA
:10063000460190E09195819591090895CF93DF93BC
:10064000CB01EA01642F0E94EA02CE01DF91CF9133
:100650000895CF93DF931F92CDB7DEB7698361E032
:10066000CE0101960E94EA0281E090E00F90DF91B6
:10067000CF91089590E080E00895CF93DF93C091EB
:10068000C001D091C1018D81882331F061E070E01B
:1006900080E090E00E94AB0289810E942F022C81B1
:1006A0002817190609F181E028272C832223D9F085
:1006B0008B81811118C0888599854E855F85841B43
:1006C000950B181619067CF4288539858A859B8533
:1006D000281B390B2817390720F088859985841B3A
:1006E000950B998788871D82DF91CF910895CF93CD
:1006F000DF93C091C201D091C3018D81882331F075
:1007000061E070E080E090E00E94AB0288810E948E
:100710002F022B8128171906E1F081E028272B836F
:100720002223B1F08C81811113C0288539858C85F5
:100730009D854A855B85240F351F8217930730F00E
:10074000888599852E853F85820F931F9987888795
:100750001D82DF91CF910895FC0101900020E9F7FF
:100760003197AF01481B590BBC0188EC91E00C9408
:10077000F8008F929F92AF92BF920F931F93CF93E7
:10078000DF93CDB7DEB7A1970FB6F894DEBF0FBEEB
:10079000CDBF19A2423008F44AE08E010F5D1F4F11
:1007A000842E912CB12CA12CA50194010E947909D1
:1007B000E62FB901CA01EA30F4F4E05DD801EE9306
:1007C0008D01232B242B252B79F790E080E01097C7
:1007D00019F0CD010E94AC03A1960FB6F894DEBFCC
:1007E0000FBECDBFDF91CF911F910F91BF90AF9002
:1007F0009F908F900895E95CE1CF1F93CF93DF9393
:1008000000D000D0CDB7DEB788EC91E00E94350172
:1008100088EC91E00E94350110E08A3379F0E1E044
:10082000F0E0EC0FFD1FE10FF11D17FDFA9580833D
:100830001F5F88EC91E00E943501EFCFCE01019659
:100840000E945309182F88EC91E00E9435018053D3
:10085000990B8230910520F4682F812F0E94580255
:1008600088EC91E00E9435018A3011F08D30C1F79B
:1008700088EC91E00E9449018A3021F488EC91E0F3
:100880000E9435010F900F900F900F90DF91CF9144
:100890001F9108951F93CF93DF9385ED8093BC0044
:1008A0008091490190914A01A0914B01B0914C0176
:1008B0000796A11DB11D23E0B695A795979587953D
:1008C0002A95D1F72091BC0024FD03C0109291011C
:1008D00052C04091490150914A0160914B01709181
:1008E0004C01452B462B472B69F30097A105B10519
:1008F00041F025E32A95F1F700000197A109B1091C
:10090000E1CF80914801C1E0C0934701882399F16C
:10091000D091B8001091BA008091BC008A7B80937E
:10092000BC0060E082E10E94580260E083E10E9426
:10093000580210929101C09393011092920161E0CC
:1009400082E10E94580261E083E10E945802809196
:10095000B9008E7F8093B9008091B9008D7F80931C
:10096000B90088E48093B80085E48093BC001093BC
:10097000BA00D093B800DF91CF911F9108951F92D4
:100980000F920FB60F9211242F933F934F935F93C3
:100990006F937F938F939F93AF93BF93EF93FF9347
:1009A00088EC91E00E947701FF91EF91BF91AF91A8
:1009B0009F918F917F916F915F914F913F912F9177
:1009C0000F900FBE0F901F9018951F920F920FB6A9
:1009D0000F9211242F938F939F93EF93FF93E091A6
:1009E000D801F091D9018081E091DE01F091DF0121
:1009F00082FD1BC090818091E1018F5F8F732091F8
:100A0000E201821741F0E091E101F0E0E853FE4F8E
:100A1000958F8093E101FF91EF919F918F912F919D
:100A20000F900FBE0F901F9018958081F4CF1F92EA
:100A30000F920FB60F9211242F933F938F939F9392
:100A4000AF93BF938091B8019091B901A091BA0181
:100A5000B091BB013091B70123E0230F2D3758F53A
:100A60000196A11DB11D2093B7018093B801909309
:100A7000B901A093BA01B093BB018091BC019091E0
:100A8000BD01A091BE01B091BF010196A11DB11D94
:100A90008093BC019093BD01A093BE01B093BF01B0
:100AA000BF91AF919F918F913F912F910F900FBE6A
:100AB0000F901F90189526E8230F0296A11DB11DD7
:100AC000D2CF1F920F920FB60F9211242F933F9304
:100AD0004F935F936F937F938F939F93AF93BF9346
:100AE000EF93FF93E0910201F09103010995FF91CB
:100AF000EF91BF91AF919F918F917F916F915F9196
:100B00004F913F912F910F900FBE0F901F9018950E
:100B10001F920F920FB60F9211242F933F934F9372
:100B20005F936F937F938F939F93AF93BF93EF9355
:100B3000FF93E0910001F09101010995FF91EF9180
:100B4000BF91AF919F918F917F916F915F914F91E5
:100B50003F912F910F900FBE0F901F9018951F92ED
:100B60000F920FB60F9211242F933F934F935F93E1
:100B70006F937F938F939F93AF93BF93EF93FF9365
:100B80008091B900887F803609F44AC0F0F5883238
:100B900009F4A5C018F5803109F499C0B8F4882388
:100BA00009F4F5C0883009F492C0FF91EF91BF912C
:100BB000AF919F918F917F916F915F914F913F91F5
:100BC0002F910F900FBE0F901F901895883109F448
:100BD00086C0803251F78093900114C0803409F4AC
:100BE0009BC040F48033B9F38833F9F680939001C9
:100BF00085ECAEC0803509F483C0883509F494C013
:100C0000883499F60E944A04D0CF883909F48AC002
:100C100038F5883729F050F4883611F0803729F6F6
:100C200083E08093910110928F0155C0883809F4B8
:100C300079C0803919F0803809F0B7CF80918F01E1
:100C4000803208F06FC0E0918F0181E08E0F8093B9
:100C50008F018091BB00F0E0E159FE4F80833BC0E3
:100C6000803B39F0D0F4803A09F477C0883A09F033
:100C70009CCF84E08093910110926E0110926D01DF
:100C8000F0E0E0E0099580916D0181110FC081E0F5
:100C900080936D0110924D0109C0803C09F4A8CFEA
:100CA000883C09F4A5CF883B09F07FCFE0916E0125
:100CB00081E08E0F80936E01F0E0E35BFE4F808158
:100CC0008093BB0090916E0180916D0129C080914D
:100CD000B6018093BB0085EC8093BC0066CF9091F9
:100CE000B5018091B401981758F5E091B50181E004
:100CF0008E0F8093B501F0E0EC56FE4F8081E9CF76
:100D0000E091B50181E08E0F8093B5018091BB0029
:100D1000F0E0EC56FE4F80839091B5018091B401D4
:100D20009817C8F285E8D8CFE091B50181E08E0F21
:100D30008093B5018091BB00F0E0EC56FE4F8083BC
:100D40008091930181115ECF81E08093920184EACA
:100D50008093BC001092910128CF85EC8093BC0059
:100D60001092910180918F01803230F4E0918F01D7
:100D7000F0E0E159FE4F108260918F0170E08FE644
:100D800091E0F0E0E0E0099510928F010ECF109213
:100D9000900138CFE8ECF1E01382128288EE93E004
:100DA000A0E0B0E084839583A683B78388E091E0D8
:100DB0009183808385EC90E09587848784EC90E034
:100DC0009787868780EC90E0918B808B81EC90E018
:100DD000938B828B82EC90E0958B848B86EC90E0F9
:100DE000978B868B118E128E138E148EE5E6F2E0B1
:100DF000168217821086118612861386148615862F
:100E000016861786108A118A128A138A148A158AFE
:100E1000EBEAF2E082E0808383E0818384E08283F6
:100E20001382148281E090E0978386831186108676
:100E30000895789484B5826084BD84B5816084BD52
:100E400085B5826085BD85B5816085BD80916E0068
:100E5000816080936E001092810080918100826099
:100E600080938100809181008160809381008091D6
:100E700080008160809380008091B10084608093C5
:100E8000B1008091B00081608093B00080917A00C1
:100E9000846080937A0080917A00826080937A00E7
:100EA00080917A00816080937A0080917A008068D6
:100EB00080937A001092C1001092A7021092A802AB
:100EC0001092A9021092AA02109267021092680270
:100ED0001092690210926A020E94DD026B017C018D
:100EE0004B015C0128EB820E2BE0921EA11CB11C71
:100EF0000E94DD026C157D058E059F0528F0861683
:100F00009706A806B906A0F768EE73E080E090E0C7
:100F10000E94AB020E948C000E94DD026093670277
:100F2000709368028093690290936A0286E191E06F
:100F30000E94AC030E94DD026B017C014B015C014D
:100F40003AE0830E911CA11CB11C0E94DD026C15BD
:100F50007D058E059F0528F086169706A806B9061A
:100F6000A0F781E080937B020E94DD02609367021C
:100F7000709368028093690290936A0287E291E01D
:100F80000E94AC038BEA92E09093C3018093C2016C
:100F90009093C1018093C0018091AB020E94D00068
:100FA0008091AC020E94D0008091AD020E94D000DE
:100FB0008091AB02823009F42AC1833009F429C13F
:100FC0008FEF67E773E00E94B4008091AC0282303B
:100FD00009F421C1833009F420C18FEF6DE373E080
:100FE0000E94B4008FE090E09093B6028093B50227
:100FF00028E730E03093B8022093B7029093BA020A
:101000008093B9021092B4021092B3020E948C0035
:10101000C0E0D0E084EF882E99249394A12CB12CC9
:101020000E94DD02672B682B692B09F4F8C00E942F
:10103000DD02C090C401D090C501E090C601F090DF
:10104000C7016C157D058E059F0508F421C1C09070
:10105000C401D090C501E090C601F090C7019B018A
:10106000AC012C193D094E095F0969017A013AEF7B
:10107000C316D104E104F10408F4D9C06093C4019B
:101080007093C5018093C6019093C701809273024B
:1010900090927402A0927502B0927602109277023A
:1010A000109278021092790210927A0280916B026B
:1010B00090916C02A0916D02B0916E0280936F02CC
:1010C00090937002A0937102B09372020E94DD02AD
:1010D00060936B0270936C0280936D0290936E022A
:1010E00088EC91E00E944901843611F40E94FD03CE
:1010F0000E94DD0260936702709368028093690228
:1011000090936A020E94DD026B017C018EE291E005
:101110000E94AC034AE061E070E080E090E00E9451
:10112000B90385E391E00E94AC034AE0C701B60130
:101130000E94B90387E391E00E94AC0380916B02A7
:1011400090916C02A0916D02B0916E02A701960180
:10115000281B390B4A0B5B0BCA01B9014AE00E94FC
:10116000B90387E391E00E94AC0360916B02709138
:101170006C0280916D0290916E02C0906F02D090CF
:101180007002E0907102F09072026C197D098E0974
:101190009F094AE00E94B90389E391E00E94AC03F1
:1011A0000E94DD024AE00E94B9038BE391E00E94B5
:1011B000AC0382E491E00E94AC030E94DD022B01AB
:1011C0003C017C016B0132E0C30ED11CE11CF11C1F
:1011D0000E94DD02641575058605970528F0C61680
:1011E000D706E806F906A0F788EC91E00E944901CD
:1011F000843611F40E94FD030E94DD0260936B02AD
:1012000070936C0280936D0290936E0210C080E028
:10121000D8CE81E0D6CE80E0E1CE81E0DFCE0E9464
:10122000DD02623071058105910508F000CF209143
:10123000B3023091B4028091B1029091B202821750
:10124000930778F12091B3023091B402281739073F
:1012500008F410E08091B3029091B4029093B2022E
:101260008093B102612F70E090E080E04AE00E943C
:10127000B90382E491E00E94AC03209709F4D0CE38
:101280000E946301882309F4CBCE0E940000C8CEDF
:101290006093C4017093C5018093C6019093C70108
:1012A000D6CE11E0D7CFFC0188279927E894219169
:1012B0002032E9F3293010F02E30C8F32B3241F000
:1012C0002D3239F4689404C00E947109820F911D77
:1012D000219120532A30C0F31EF4909581959F4FA1
:1012E00008957AE0979F902D879F802D910D11246E
:1012F0000895A1E21A2EAA1BBB1BFD010DC0AA1F57
:10130000BB1FEE1FFF1FA217B307E407F50720F06E
:10131000A21BB30BE40BF50B661F771F881F991FE9
:101320001A9469F760957095809590959B01AC0132
:10133000BD01CF010895EE0FFF1F0590F491E02D40
:061340000994F894FFCFB0
:10134600E902E902000000009901F8002601E60121
:10135600570135014901564D4450565F317C315F86
:10136600564D4450560A00564D4450525F00564D55
:101376004450455F003A323A007C005F564D445077
:0613860045000D0A000005
:107E0000112484B714BE81FFF0D085E080938100F7
:107E100082E08093C00088E18093C10086E0809377
:107E2000C20080E18093C4008EE0C9D0259A86E02C
:107E300020E33CEF91E0309385002093840096BBD3
:107E4000B09BFECF1D9AA8958150A9F7CC24DD24C4
:107E500088248394B5E0AB2EA1E19A2EF3E0BF2EE7
:107E6000A2D0813461F49FD0082FAFD0023811F036
:107E7000013811F484E001C083E08DD089C08234E0
:107E800011F484E103C0853419F485E0A6D080C0E4
:107E9000853579F488D0E82EFF2485D0082F10E0AE
:107EA000102F00270E291F29000F111F8ED06801E7
:107EB0006FC0863521F484E090D080E0DECF843638
:107EC00009F040C070D06FD0082F6DD080E0C81688
:107ED00080E7D80618F4F601B7BEE895C0E0D1E017
:107EE00062D089930C17E1F7F0E0CF16F0E7DF06D8
:107EF00018F0F601B7BEE89568D007B600FCFDCFD4
:107F0000A601A0E0B1E02C9130E011968C91119780
:107F100090E0982F8827822B932B1296FA010C0160
:107F200087BEE89511244E5F5F4FF1E0A038BF0790
:107F300051F7F601A7BEE89507B600FCFDCF97BE46
:107F4000E89526C08437B1F42ED02DD0F82E2BD052
:107F50003CD0F601EF2C8F010F5F1F4F84911BD097
:107F6000EA94F801C1F70894C11CD11CFA94CF0C13
:107F7000D11C0EC0853739F428D08EE10CD085E9AC
:107F80000AD08FE07ACF813511F488E018D01DD067
:107F900080E101D065CF982F8091C00085FFFCCF94
:107FA0009093C60008958091C00087FFFCCF809118
:107FB000C00084FD01C0A8958091C6000895E0E648
:107FC000F0E098E1908380830895EDDF803219F02E
:107FD00088E0F5DFFFCF84E1DECF1F93182FE3DFCA
:107FE0001150E9F7F2DF1F91089580E0E8DFEE27F6
:047FF000FF270994CA
:027FFE00040479
:0400000300007E007B
:00000001FF