:100000000C9462000C948A000C948A000C948A0070
:100010000C948A000C948A000C948A000C948A0038
:100020000C948A000C948A000C948A000C948A0028
:100030000C948A000C948A000C948A000C948A0018
:100040000C9410040C948A000C94DE030C94B803F6
:100050000C948A000C948A000C948A000C948A00F8
:100060000C945A040C948A0000000000230026001F
:10007000290000000008000201000003040700003E
:1000800000000000000000000000250028002B00F8
:1000900000000000240027002A00040404040404D3
:1000A0000404020202020202030303030303010227
:1000B00004081020408001020408102001020408F6
:1000C0001020750511241FBECFEFD8E0DEBFCDBFD5
:1000D00011E0A0E0B1E0E0E3FFE002C005900D9286
:1000E000A631B107D9F722E0A6E1B1E001C01D9227
:1000F000A334B207E1F710E0C2E6D0E004C02197D4
:10010000FE010E949007C136D107C9F70E94AA05D7
:100110000C9496070C9400004091310250913202E9
:1001200060913302709134028091390290913A02C9
:10013000A0913B02B0913C02481759076A077B0720
:1001400044F48093310290933202A0933302B0932F
:100150003402409131025091320260913302709129
:10016000340280913D0290913E02A0913F02B091F5
:10017000400284179507A607B70744F4809331021D
:1001800090933202A0933302B09334020895CF9338
:10019000DF9390E0FC01E255FF4F249186569F4F7C
:1001A000FC0184918823C1F090E0880F991FFC0125
:1001B000E057FF4FC591D491FC01EA57FF4FA5913D
:1001C000B4919FB7F8943881822F809583238883D8
:1001D000EC91E22BEC939FBFDF91CF910895AF920A
:1001E000BF92CF92DF92EF92FF920F931F93CF9324
:1001F000DF936C017B018B01040F151FEB015E0186
:10020000AE18BF08C017D10759F06991D601ED911A
:10021000FC910190F081E02DC6010995892B79F7B9
:10022000C501DF91CF911F910F91FF90EF90DF906B
:10023000CF90BF90AF900895FC01538D448D252F32
:1002400030E0842F90E0821B930B541710F0CF9670
:10025000089501970895FC01918D828D981761F0A2
:10026000A28DAE0FBF2FB11D5D968C91928D9F5FB9
:100270009F73928F90E008958FEF9FEF0895FC0198
:10028000918D828D981731F0828DE80FF11D858D4B
:1002900090E008958FEF9FEF0895FC01918D228DDE
:1002A000892F90E0805C9F4F821B91098F73992763
:1002B000089580E991E00E944D0121E0892B09F425
:1002C00020E0822F089580E090E0892B29F00E94A1
:1002D000590181110C9400000895FC01A48DA80F10
:1002E000B92FB11DA35ABF4F2C91848D90E0019678
:1002F0008F739927848FA689B7892C93A089B18998
:100300008C91837080648C93938D848D981306C038
:100310000288F389E02D80818F7D80830895EF929C
:10032000FF920F931F93CF93DF93EC0181E0888FAF
:100330009B8D8C8D98131AC0E889F989808185FF7F
:1003400015C09FB7F894EE89FF896083E889F98921
:1003500080818370806480839FBF81E090E0DF9123
:10036000CF911F910F91FF90EF900895F62E0B8D76
:1003700010E00F5F1F4F0F731127E02E8C8D8E1131
:100380000CC00FB607FCFACFE889F989808185FF98
:10039000F5CFCE010E946D01F1CFEB8DEC0FFD2F5B
:1003A000F11DE35AFF4FF0829FB7F8940B8FEA8953
:1003B000FB8980818062CFCFCF93DF93EC01888D62
:1003C0008823B9F0AA89BB89E889F9898C9185FDD0
:1003D00003C0808186FD0DC00FB607FCF7CF8C915E
:1003E00085FFF2CF808185FFEDCFCE010E946D01A8
:1003F000E9CFDF91CF910895833081F028F48130E7
:1004000099F08230A9F008958730A9F08830C9F0BA
:100410008430B1F4809180008F7D03C08091800092
:100420008F7780938000089584B58F7784BD089579
:1004300084B58F7DFBCF8091B0008F778093B00023
:1004400008958091B0008F7DF9CFCF93DF93282F4F
:1004500030E0F901EE58FF4F8491F901E255FF4F6A
:10046000D491F901E656FF4FC491CC23A1F081113C
:100470000E94FC01EC2FF0E0EE0FFF1FE859FF4F48
:10048000A591B491EC91ED2381E090E009F480E036
:10049000DF91CF91089580E090E0FACF1F93CF9342
:1004A000DF93282F30E0F901EE58FF4F8491F901D6
:1004B000E255FF4FD491F901E656FF4FC491CC238A
:1004C000A9F0162F81110E94FC01EC2FF0E0EE0F35
:1004D000FF1FEA57FF4FA591B4918FB7F894EC91A5
:1004E000111108C0D095DE23DC938FBFDF91CF912F
:1004F0001F910895DE2BF8CF3FB7F89480918C01BF
:1005000090918D01A0918E01B0918F0126B5A89B8D
:1005100005C02F3F19F00196A11DB11D3FBFBA2F95
:10052000A92F982F8827BC01CD01620F711D811D55
:10053000911D42E0660F771F881F991F4A95D1F7DA
:10054000089520913D01260F3327331F21323105B5
:10055000ECF420916101FC0190E080E0243069F02E
:1005600082E00895A0913D012191AC01435E5E4F70
:10057000A40FB52FB11D2C930196861798F3809187
:100580003D01680F60933D0180E0089581E008958A
:1005900008958FEF9FEF08958FEF9FEF089580915B
:1005A000160190E09195819591090895CF93DF937D
:1005B000CB01EA01642F0E94A102CE01DF91CF910D
:1005C0000895CF93DF931F92CDB7DEB7698361E0C3
:1005D000CE0101960E94A10281E090E00F90DF9190
:1005E000CF91089590E080E008958F929F92AF920E
:1005F000BF920F931F93CF93DF93CDB7DEB7A19731
:100600000FB6F894DEBF0FBECDBF19A2423008F47A
:100610004AE08E010F5D1F4F842E912CB12CA12C2E
:10062000A50194010E946E07E62FB901CA01EA30C4
:1006300044F5E05DD801EE938D01232B242B252B6F
:1006400079F790E080E0109769F0FD0101900020BB
:10065000E9F73197AF014A1B5B0BBD0180E991E0DF
:100660000E94EF00A1960FB6F894DEBF0FBECDBF7B
:10067000DF91CF911F910F91BF90AF909F908F907E
:100680000895E95CD7CF1F93CF93DF9385ED8093D7
:10069000BC008091190190911A01A0911B01B091A9
:1006A0001C010796A11DB11D23E0B695A79597954E
:1006B00087952A95D1F72091BC0024FD03C01092A4
:1006C000610152C04091190150911A0160911B01C2
:1006D00070911C01452B462B472B69F30097A10510
:1006E000B10541F025E32A95F1F700000197A10932
:1006F000B109E1CF80911801C1E0C09317018823AF
:1007000099F1D091B8001091BA008091BC008A7B19
:100710008093BC0060E082E10E944E0260E083E1D1
:100720000E944E0210926101C09363011092620117
:1007300061E082E10E944E0261E083E10E944E028C
:100740008091B9008E7F8093B9008091B9008D7F30
:100750008093B90088E48093B80085E48093BC005E
:100760001093BA00D093B800DF91CF911F910895F4
:100770001F920F920FB60F9211242F933F934F9316
:100780005F936F937F938F939F93AF93BF93EF93F9
:10079000FF9380E991E00E946D01FF91EF91BF917D
:1007A000AF919F918F917F916F915F914F913F9109
:1007B0002F910F900FBE0F901F9018951F920F92C0
:1007C0000FB60F9211242F938F939F93EF93FF9364
:1007D000E091A001F091A1018081E091A601F0914A
:1007E000A70182FD1BC090818091A9018F5F8F734B
:1007F0002091AA01821741F0E091A901F0E0E057B1
:10080000FE4F958F8093A901FF91EF919F918F915A
:100810002F910F900FBE0F901F9018958081F4CFED
:100820001F920F920FB60F9211242F933F938F9325
:100830009F93AF93BF938091880190918901A0917C
:100840008A01B0918B013091870123E0230F2D376E
:1008500058F50196A11DB11D209387018093880151
:1008600090938901A0938A01B0938B0180918C01B0
:1008700090918D01A0918E01B0918F010196A11DE3
:10088000B11D80938C0190938D01A0938E01B09344
:100890008F01BF91AF919F918F913F912F910F90B9
:1008A0000FBE0F901F90189526E8230F0296A11DEA
:1008B000B11DD2CF1F920F920FB60F9211242F931A
:1008C0003F934F935F936F937F938F939F93AF93D8
:1008D000BF93EF93FF938091B900887F803609F42E
:1008E0004AC0F0F5883209F4A5C018F5803109F442
:1008F00099C0B8F4882309F4F5C0883009F492C08F
:10090000FF91EF91BF91AF919F918F917F916F91E7
:100910005F914F913F912F910F900FBE0F901F90BD
:100920001895883109F486C0803251F780936001B0
:1009300014C0803409F49BC040F48033B9F3883389
:10094000F9F68093600185ECAEC0803509F483C070
:10095000883509F494C0883499F60E944303D0CFB7
:10096000883909F48AC038F5883729F050F4883678
:1009700011F0803729F683E08093610110925F01C6
:1009800055C0883809F479C0803919F0803809F0E9
:10099000B7CF80915F01803208F06FC0E0915F01B6
:1009A00081E08E0F80935F018091BB00F0E0E15CFD
:1009B000FE4F80833BC0803B39F0D0F4803A09F48D
:1009C00077C0883A09F09CCF84E08093610110924F
:1009D0003E0110923D01F0E0E0E0099580913D017B
:1009E00081110FC081E080933D0110921D0109C06B
:1009F000803C09F4A8CF883C09F4A5CF883B09F0D6
:100A00007FCFE0913E0181E08E0F80933E01F0E0C8
:100A1000E35EFE4F80818093BB0090913E01809108
:100A20003D0129C0809186018093BB0085EC8093B5
:100A3000BC0066CF9091850180918401981758F58C
:100A4000E091850181E08E0F80938501F0E0EC5903
:100A5000FE4F8081E9CFE091850181E08E0F809388
:100A600085018091BB00F0E0EC59FE4F80839091AE
:100A70008501809184019817C8F285E8D8CFE0916C
:100A8000850181E08E0F809385018091BB00F0E0AD
:100A9000EC59FE4F80838091630181115ECF81E02C
:100AA0008093620184EA8093BC001092610128CF98
:100AB00085EC8093BC001092610180915F018032CF
:100AC00030F4E0915F01F0E0E15CFE4F1082609154
:100AD0005F0170E08FE391E0F0E0E0E009951092B3
:100AE0005F010ECF1092600138CFE0E9F1E0138290
:100AF000128288EE93E0A0E0B0E084839583A68321
:100B0000B78384E091E09183808385EC90E09587C2
:100B1000848784EC90E09787868780EC90E0918BC7
:100B2000808B81EC90E0938B828B82EC90E0958BB4
:100B3000848B86EC90E0978B868B118E128E138EB1
:100B4000148EEDE2F2E082E0808383E0818384E032
:100B500082830895789484B5826084BD84B5816071
:100B600084BD85B5826085BD85B5816085BD809178
:100B70006E00816080936E001092810080918100F0
:100B800082608093810080918100816080938100E8
:100B9000809180008160809380008091B1008460AA
:100BA0008093B1008091B00081608093B00080910B
:100BB0007A00846080937A0080917A0082608093CA
:100BC0007A0080917A00816080937A0080917A0027
:100BD000806880937A001092C10080912D020E945B
:100BE000C70080912E020E94C70080912F020E94B0
:100BF000C70010923102109232021092330210920A
:100C000034028FE090E0A0E0B0E08093390290934E
:100C10003A02A0933B02B0933C020E948C0088E70A
:100C200090E0A0E0B0E080933D0290933E02A0935C
:100C30003F02B09340020E948C008FE090E09093BE
:100C400042028093410210923102109232021092BD
:100C5000330210923402E091A001F091A10182E0F0
:100C60008083E0919C01F0919D011082E0919E01B2
:100C7000F0919F0180E180831092A801E091A4018E
:100C8000F091A50186E08083E091A201F091A3019B
:100C9000808180618083E091A201F091A301808135
:100CA00088608083E091A201F091A3018081806837
:100CB0008083E091A201F091A30180818F7D8083E8
:100CC00000E010E080912E020E942502EC0180914C
:100CD0002D020E942502CC0FDD1F8C0F9D1F092EB7
:100CE000000CAA0BBB0B8093310290933202A093AD
:100CF0003302B0933402409131025091320260913C
:100D00003302709134028091350290913602A091A5
:100D10003702B0913802481759076A077B0709F470
:100D20008FC08091350290913602A0913702B09128
:100D30003802892B8A2B8B2B69F480913102909198
:100D40003202A0913302B09134020197A105B1059E
:100D500009F44BC08091350290913602A091370280
:100D6000B09138020197A105B10561F4809131027B
:100D700090913202A0913302B09134020397A10501
:100D8000B10599F18091350290913602A091370218
:100D9000B09138020397A105B10561F48091310249
:100DA00090913202A0913302B09134020297A105D2
:100DB000B105D9F08091350290913602A0913702A9
:100DC000B09138020297A105B10569F44091310252
:100DD00050913202609133027091340281E0452BD0
:100DE000462B472B19F080E001C081E08093300250
:100DF0006091300270E090E080E04AE00E94F502ED
:100E000042E050E062E171E080E991E00E94EF0091
:100E100080913002882309F455C08091310290916D
:100E20003202A0913302B09134020196A11DB11D8E
:100E30008093310290933202A0933302B093340234
:100E40008091350290913602A0913702B09138021C
:100E50008093310290933202A0933302B093340214
:100E60000E948C000E947C026B017C0184E6882E2B
:100E7000912CA12CB12C0E947C026C197D098E0949
:100E80009F09683E734081059105A8F321E0821A0D
:100E90009108A108B10888EEC80E83E0D81EE11CB5
:100EA000F11C81149104A104B10429F70115110565
:100EB00009F408CF0E945901882309F403CF0E9446
:100EC000000000CF8091310290913202A091330254
:100ED000B09134020197A109B109AACFA1E21A2E5B
:100EE000AA1BBB1BFD010DC0AA1FBB1FEE1FFF1FCE
:100EF000A217B307E407F50720F0A21BB30BE40B1E
:100F0000F50B661F771F881F991F1A9469F7609564
:100F10007095809590959B01AC01BD01CF0108951E
:100F2000EE0FFF1F0590F491E02D0994F894FFCF88
:100F3000000000008F01EF001C01DC014D012B01BE
:060F40003F010D0A000054
:00000001FF
