:100000000C9462000C941A040C94F3030C948A0070
:100010000C948A000C948A000C948A000C948A0038
:100020000C948A000C948A000C948A000C948A0028
:100030000C948A000C948A000C948A000C948A0018
:100040000C94A9030C948A000C9477030C9451032C
:100050000C948A000C948A000C948A000C948A00F8
:100060000C9441040C948A00000000002300260038
:10007000290000000008000201000003040700003E
:1000800000000000000000000000250028002B00F8
:1000900000000000240027002A00040404040404D3
:1000A0000404020202020202030303030303010227
:1000B00004081020408001020408102001020408F6
:1000C00010205C0511241FBECFEFD8E0DEBFCDBFEE
:1000D00011E0A0E0B1E0E6EEFDE002C005900D9277
:1000E000AA31B107D9F722E0AAE1B1E001C01D921F
:1000F000A034B207E1F710E0C2E6D0E004C02197D7
:10010000FE010E94EB06C136D107C9F70E94970590
:100110000C94F1060C940000CF93DF9390E0FC0167
:10012000E255FF4F249186569F4FFC01849188230E
:10013000C1F090E0880F991FFC01E057FF4FC59177
:10014000D491FC01EA57FF4FA591B4919FB7F89461
:100150003881822F809583238883EC91E22BEC9366
:100160009FBFDF91CF910895AF92BF92CF92DF9260
:10017000EF92FF920F931F93CF93DF936C017B015C
:100180008B01040F151FEB015E01AE18BF08C017ED
:10019000D10759F06991D601ED91FC910190F08160
:1001A000E02DC6010995892B79F7C501DF91CF9123
:1001B0001F910F91FF90EF90DF90CF90BF90AF9085
:1001C0000895FC01538D448D252F30E0842F90E05D
:1001D000821B930B541710F0CF9608950197089542
:1001E000FC01918D828D981761F0A28DAE0FBF2F0B
:1001F000B11D5D968C91928D9F5F9F73928F90E061
:1002000008958FEF9FEF0895FC01918D828D9817CF
:1002100031F0828DE80FF11D858D90E008958FEF0C
:100220009FEF0895FC01918D228D892F90E0805CD5
:100230009F4F821B91098F739927089586E991E05A
:100240000E94120121E0892B09F420E0822F0895F9
:1002500080E090E0892B29F00E941E0181110C940E
:1002600000000895FC01A48DA80FB92FB11DA35A59
:10027000BF4F2C91848D90E001968F739927848FC6
:10028000A689B7892C93A089B1898C9183708064E9
:100290008C93938D848D981306C00288F389E02D8A
:1002A00080818F7D80830895EF92FF920F931F933B
:1002B000CF93DF93EC0181E0888F9B8D8C8D981319
:1002C0001AC0E889F989808185FF15C09FB7F89425
:1002D000EE89FF896083E889F98980818370806471
:1002E00080839FBF81E090E0DF91CF911F910F91BC
:1002F000FF90EF900895F62E0B8D10E00F5F1F4FCB
:100300000F731127E02E8C8D8E110CC00FB607FCD9
:10031000FACFE889F989808185FFF5CFCE010E9467
:100320003201F1CFEB8DEC0FFD2FF11DE35AFF4FA2
:10033000F0829FB7F8940B8FEA89FB8980818062F5
:10034000CFCFCF93DF93EC01888D8823B9F0AA89B2
:10035000BB89E889F9898C9185FD03C0808186FD80
:100360000DC00FB607FCF7CF8C9185FFF2CF8081CF
:1003700085FFEDCFCE010E943201E9CFDF91CF9111
:100380000895833081F028F4813099F08230A9F00B
:1003900008958730A9F08830C9F08430B1F4809195
:1003A00080008F7D03C0809180008F7780938000D4
:1003B000089584B58F7784BD089584B58F7DFBCF74
:1003C0008091B0008F778093B00008958091B00045
:1003D0008F7DF9CFCF93DF93282F30E0F901EE58CE
:1003E000FF4F8491F901E255FF4FD491F901E65690
:1003F000FF4FC491CC23A1F081110E94C101EC2FC9
:10040000F0E0EE0FFF1FE859FF4FA591B491EC917A
:10041000ED2381E090E009F480E0DF91CF91089531
:1004200080E090E0FACF1F93CF93DF93282F30E046
:10043000F901EE58FF4F8491F901E255FF4FD49135
:10044000F901E656FF4FC491CC23A9F0162F811174
:100450000E94C101EC2FF0E0EE0FFF1FEA57FF4FA3
:10046000A591B4918FB7F894EC91111108C0D09573
:10047000DE23DC938FBFDF91CF911F910895DE2B98
:10048000F8CF3FB7F8948091900190919101A0919D
:100490009201B091930126B5A89B05C02F3F19F09A
:1004A0000196A11DB11D3FBFBA2FA92F982F8827F4
:1004B000BC01CD01620F711D811D911D42E0660FCF
:1004C000771F881F991F4A95D1F7089508952091A5
:1004D0004101260F3327331F21323105ECF42091DF
:1004E0006501FC0190E080E0243069F082E008952D
:1004F000A09141012191AC014F5D5E4FA40FB52F3A
:10050000B11D2C930196861798F380914101680FD5
:100510006093410180E0089581E0089508958FEF90
:100520009FEF08958FEF9FEF089580911A0190E05B
:100530009195819591090895CF93DF93CB01EA01BD
:10054000642F0E946702CE01DF91CF910895CF936F
:10055000DF931F92CDB7DEB7698361E0CE010196CC
:100560000E94670281E090E00F90DF91CF910895A3
:1005700090E080E00895CF93DF93C0919401D091F3
:10058000950188810E94EA01892B49F089810E94A6
:10059000EA01892B49F08D819E81019608C08981ED
:1005A0000E94EA01892BB9F38D819E8101979E8378
:1005B0008D83DF91CF9108951F93CF93DF9385EDC6
:1005C0008093BC0080911D0190911E01A0911F019C
:1005D000B09120010796A11DB11D23E0B695A79506
:1005E000979587952A95D1F72091BC0024FD03C0EB
:1005F0001092650152C040911D0150911E01609101
:100600001F0170912001452B462B472B69F3009762
:10061000A105B10541F025E32A95F1F70000019706
:10062000A109B109E1CF80911C01C1E0C0931B0178
:10063000882399F1D091B8001091BA008091BC0044
:100640008A7B8093BC0060E082E10E94130260E03C
:1006500083E10E94130210926501C093670110921A
:10066000660161E082E10E94130261E083E10E9481
:1006700013028091B9008E7F8093B9008091B900F8
:100680008D7F8093B90088E48093B80085E48093DF
:10069000BC001093BA00D093B800DF91CF911F91A6
:1006A00008951F920F920FB60F9211242F933F932C
:1006B0004F935F936F937F938F939F93AF93BF936A
:1006C000EF93FF9386E991E00E943201FF91EF9151
:1006D000BF91AF919F918F917F916F915F914F915A
:1006E0003F912F910F900FBE0F901F9018951F9262
:1006F0000F920FB60F9211242F938F939F93EF9326
:10070000FF93E091A601F091A7018081E091AC01F7
:10071000F091AD0182FD1BC090818091AF018F5F90
:100720008F732091B001821741F0E091AF01F0E0AA
:10073000EA56FE4F958F8093AF01FF91EF919F9105
:100740008F912F910F900FBE0F901F901895808161
:10075000F4CF1F920F920FB60F9211242F933F9355
:100760008F939F93AF93BF9380918C0190918D0154
:10077000A0918E01B0918F0130918B0123E0230F66
:100780002D3758F50196A11DB11D20938B01809343
:100790008C0190938D01A0938E01B0938F01809175
:1007A000900190919101A0919201B09193010196D5
:1007B000A11DB11D8093900190939101A09392018E
:1007C000B0939301BF91AF919F918F913F912F91E2
:1007D0000F900FBE0F901F90189526E8230F0296DA
:1007E000A11DB11DD2CF1F920F920FB60F921124EF
:1007F0002F933F934F935F936F937F938F939F9329
:10080000AF93BF93EF93FF93E0910201F091030147
:100810000995FF91EF91BF91AF919F918F917F913A
:100820006F915F914F913F912F910F900FBE0F905D
:100830001F9018951F920F920FB60F9211242F93AD
:100840003F934F935F936F937F938F939F93AF9358
:10085000BF93EF93FF93E0910001F091010109959F
:10086000FF91EF91BF91AF919F918F917F916F9188
:100870005F914F913F912F910F900FBE0F901F905E
:1008800018951F920F920FB60F9211242F933F933A
:100890004F935F936F937F938F939F93AF93BF9388
:1008A000EF93FF938091B900887F803609F44AC0A6
:1008B000F0F5883209F4A5C018F5803109F499C023
:1008C000B8F4882309F4F5C0883009F492C0FF9188
:1008D000EF91BF91AF919F918F917F916F915F91B8
:1008E0004F913F912F910F900FBE0F901F90189531
:1008F000883109F486C0803251F78093640114C0B6
:10090000803409F49BC040F48033B9F38833F9F69E
:100910008093640185ECAEC0803509F483C08835CE
:1009200009F494C0883499F60E94DC02D0CF88394B
:1009300009F48AC038F5883729F050F4883611F068
:10094000803729F683E0809365011092630155C0DA
:10095000883809F479C0803919F0803809F0B7CFA8
:1009600080916301803208F06FC0E091630181E003
:100970008E0F809363018091BB00F0E0ED5BFE4F32
:1009800080833BC0803B39F0D0F4803A09F477C0D3
:10099000883A09F09CCF84E080936501109242016F
:1009A00010924101F0E0E0E0099580914101811150
:1009B0000FC081E0809341011092210109C0803C69
:1009C00009F4A8CF883C09F4A5CF883B09F07FCF74
:1009D000E091420181E08E0F80934201F0E0EF5DF3
:1009E000FE4F80818093BB00909142018091410134
:1009F00029C080918A018093BB0085EC8093BC0064
:100A000066CF9091890180918801981758F5E091FF
:100A1000890181E08E0F80938901F0E0E859FE4F53
:100A20008081E9CFE091890181E08E0F8093890177
:100A30008091BB00F0E0E859FE4F808390918901DE
:100A4000809188019817C8F285E8D8CFE091890194
:100A500081E08E0F809389018091BB00F0E0E8591E
:100A6000FE4F80838091670181115ECF81E080938A
:100A7000660184EA8093BC001092650128CF85EC62
:100A80008093BC001092650180916301803230F444
:100A9000E0916301F0E0ED5BFE4F10826091630135
:100AA00070E083E491E0F0E0E0E0099510926301EA
:100AB0000ECF1092640138CFE6E9F1E01382128282
:100AC00088EE93E0A0E0B0E084839583A683B783AB
:100AD00088E091E09183808385EC90E0958784871E
:100AE00084EC90E09787868780EC90E0918B808BF8
:100AF00081EC90E0938B828B82EC90E0958B848BE1
:100B000086EC90E0978B868B118E128E138E148E4E
:100B1000E3E3F2E082E0808383E0818387E0828305
:100B200081E090E094838383168215820895CF93A9
:100B3000DF93CDB7DEB7A1970FB6F894DEBF0FBE37
:100B4000CDBF789484B5826084BD84B5816084BD56
:100B500085B5826085BD85B5816085BD80916E005B
:100B6000816080936E00109281008091810082608C
:100B700080938100809181008160809381008091C9
:100B800080008160809380008091B10084608093B8
:100B9000B1008091B00081608093B00080917A00B4
:100BA000846080937A0080917A00826080937A00DA
:100BB00080917A00816080937A0080917A008068C9
:100BC00080937A001092C10083E392E090939501A4
:100BD00080939401809133020E948C0080913402B2
:100BE0000E948C00809135020E948C00809133021B
:100BF000823009F4C0C0833069F48BEB92E09093AB
:100C000003018093020180916900837F8460809357
:100C10006900E99A8FE090E090933B0280933A025A
:100C200028E730E030933D0220933C0290933F024E
:100C300080933E021092390210923802E091A60190
:100C4000F091A70182E08083E091A201F091A301DD
:100C50001082E091A401F091A50180E180831092BF
:100C6000AE01E091AA01F091AB0186E08083E091B2
:100C7000A801F091A901808180618083E091A801A1
:100C8000F091A901808188608083E091A801F091B2
:100C9000A901808180688083E091A801F091A90179
:100CA00080818F7D80839AE0892E912CA12CB12C9C
:100CB00020E0222E20E0322E20913802309139029D
:100CC00050E040E019A28E010F5D1F4FCA01B9012B
:100CD000A50194010E94C906605DF80162938F012D
:100CE000211531054105510589F7309761F00190D3
:100CF0000020E9F73197AF01401B510BB80186E99D
:100D000091E00E94B40042E050E066E171E086E9C3
:100D100091E00E94B4000E9441026B017C0182E3D9
:100D2000482E512C612C712C0E9441026C197D09B6
:100D30008E099F09683E734081059105A8F3F1E093
:100D40004F1A51086108710828EEC20E23E0D21E26
:100D5000E11CF11C411451046104710429F72114B0
:100D6000310409F4A9CF0E941E01882309F4A4CFFD
:100D70000E940000A1CF8BEB92E090930101809341
:100D80000001809169008C7F816080936900E89AFE
:100D900041CFA1E21A2EAA1BBB1BFD010DC0AA1F49
:100DA000BB1FEE1FFF1FA217B307E407F50720F0D4
:100DB000A21BB30BE40BF50B661F771F881F991F4F
:100DC0001A9469F760957095809590959B01AC0198
:100DD000BD01CF010895EE0FFF1F0590F491E02DA6
:060DE0000994F894FFCF16
:100DE60066026602000000005401B400E100A101A1
:0A0DF6001201F00004010D0A0000D4
:00000001FF
